:100000000C94C4010C94A70C0C94800C0C94590C07
:100010000C94320C0C94EC010C94EC010C940B0C31
:100020000C94EC010C9466110C94CE0C0C943D0DC8
:100030000C94EC010C94EC010C94EC010C94EC018C
:100040000C94EC010C94EC010C94EC010C94EC017C
:100050000C94EC010C94EC010C94EC010C94C10B8D
:100060000C94EC010C94EC010C94EC010C94EC015C
:100070000C94EC010C94EC010C94EC010C94EC014C
:100080000C94EC010C94EC010C94EC010C94EC013C
:100090000C94B1110C94EC010C94EC010C94EC0157
:1000A0000C94EC010C946F0F0C94EC010000000018
:1000B0000000004F00000007000700147F147F14A9
:1000C000242A7F2A122313086462364955225000DD
:1000D00000070000001C2241000041221C001408FF
:1000E0003E081408083E08080050300000080808C0
:1000F0000808006060000020100804023E514945D5
:100100003E00427F400042615149462141454B310A
:100110001814127F1027454545393C4A4949300398
:10012000017109073649494936064949291E0036F1
:100130003600000056360000081422410014141442
:100140001414004122140802015109063249794170
:100150003E7E1111117E7F494949363E414141227F
:100160007F4141413E7F494949417F090909013E9B
:100170004149497A7F0808087F00417F41002040BB
:10018000413F017F081422417F404040407F020CE4
:10019000027F7F0408107F3E4141413E7F090909EB
:1001A000063E4151215E7F09192946464949493198
:1001B00001017F01013F4040403F1F2040201F3F81
:1001C0004038403F63140814630708700807615102
:1001D000494543007F41410002040810200041418D
:1001E0007F0004020102044040404040000102043C
:1001F0000020545454787F484444383844444420C0
:10020000384444487F3854545418087E0901020C7D
:100210005252523E7F0804047800447D4000204042
:10022000443D007F1028440000417F40007C0418BA
:1002300004787C0804047838444444387C1414144A
:1002400008081414187C7C080404084854545420EA
:10025000043F4440203C4040207C1C2040201C3C6B
:100260004038403C44281028440C5050503C4464D2
:10027000544C44000836410000007F000000413625
:1002800008000C02040806081C2A080800030C0FCA
:1002900030333C3FC0C3CCCFF0F3FCFF080B00026F
:1002A000020200000904000001020200000524000F
:1002B00010010524010101042402060524060001A1
:1002C0000705810310004009040100020A00000034
:1002D00007050202400000070583024000000403F6
:1002E000090412010002EF020140FB1F002300017C
:1002F00001020301506F6C6F6C7520436F72706F59
:10030000726174696F6E00506F6C6F6C7520412D57
:100310005374617220333255340000000000250010
:1003200028002B002E0031000404040404030405FB
:100330000202020204030202020206060606060682
:100340000404020202040404080201104080401068
:1003500020408040800802040180402010020110EB
:100360008010204040200000000200090F00000320
:100370000401000C0000000000000000000000006C
:10038000000000000000031311241FBECFEFDAE0CD
:10039000DEBFCDBF11E0A0E0B1E0E2EDFCE202C0C3
:1003A00005900D92AA3BB107D9F723E0AAEBB1E083
:1003B00001C01D92AC3EB207E1F711E0C4ECD1E000
:1003C00004C02197FE010E943716C33CD107C9F72C
:1003D0000E944A130C9467160C9400005B9887FDEA
:1003E0005D9A87FF5D985B9A5B9886FD5D9A86FFB4
:1003F0005D985B9A5B9885FD5D9A85FF5D985B9A39
:100400005B9884FD5D9A84FF5D985B9A5B9883FDA1
:100410005D9A83FF5D985B9A5B9882FD5D9A82FF8F
:100420005D985B9A5B9881FD5D9A81FF5D985B9A10
:100430005B9880FD5D9A80FF5D985B9A0895FC0152
:100440008091A702882311F13FB7F89482E080934E
:10045000E9002091F200822F90E01816190614F49A
:1004600081E090E0882339F0289844E64093A60282
:100470004091F1004083222339F02091F2002111B4
:1004800003C02BE62093E8003FBF08958FEF9FEF56
:1004900008952FB7F89483E08093E9009091E800E5
:1004A000892F807295FF04C09091F20080E4891B2F
:1004B0002FBF089580919E0281110DC082E080932C
:1004C0009A0284E080939B0210929D0210929C02FB
:1004D00081E080939E028AE992E00895282F30E01F
:1004E000F901EA59FC4F9491F901E95BFC4F8491C1
:1004F000285D3C4FF9012491222309F430C099234F
:10050000E9F091509F30D0F4E92FF0E0E657FD4F2D
:100510000C943716B802BC029902B002B4029E02D3
:100520009E029E02BF02C502C902CD02D3029E02F4
:10053000D702909180009F7790938000E22FF0E0A7
:10054000EE0FFF1FE65EFC4FA591B4919FB7F894A4
:10055000EC91611132C080958E238C939FBF0895DA
:10056000909180009F7DE8CF90918000977FE4CFAD
:1005700094B59F7794BDE2CF94B59F7DFBCF9091CA
:1005800090009F7790939000D9CF909190009F7D9D
:10059000F9CF90919000977FF5CF9091C0009F7711
:1005A0009093C000CBCF9091C0009F7DF9CF9091E8
:1005B000C200977F9093C200C1CF8E2BCECF3FB7A2
:1005C000F8948091960290919702A0919802B09130
:1005D000990226B5A89B05C02F3F19F00196A11DD1
:1005E000B11D3FBFBA2FA92F982F8827BC01CD017D
:1005F000620F711D811D911D42E0660F771F881FDC
:10060000991F4A95D1F70895CF92DF92EF92FF920A
:100610000E94DF026B017C010E94DF026C197D09E0
:100620008E099F09683E734081059105A8F3FF90EC
:10063000EF90DF90CF90089580913F0290913E021D
:10064000891B990B089508950895089540913402E7
:1006500050913502209132023091330242175307F4
:10066000B4F49091E8009570E1F39091E80092FD68
:1006700019C08093F1008091340290913502019667
:100680008F739927892B19F48EEF8093E80080915E
:100690003402909135020196909335028093340292
:1006A00081E0089580E00895DF92EF92FF920F932A
:1006B0001F93CF93DF93D82E8A01EB017B01E40EC9
:1006C000F51ECE15DF0559F0D7FE12C0FE0184914C
:1006D0000E94260321968111F4CF0FEF1FEFC8016E
:1006E000DF91CF911F910F91FF90EF90DF900895D0
:1006F0008881EECF0F931F93CF93DF931F92CDB7D7
:10070000DEB782E0898342E450E06CE972E080E881
:100710000E9454030E945A02DC0112960D911C9112
:100720000115110589F0D801ED91FC910280F3814A
:10073000E02DBE016F5F7F4FC801099597FD04C092
:10074000F80100851185ECCF89810F90DF91CF9161
:100750001F910F910895615030F02091F100FC013C
:1007600020830196F8CF289884E68093A602089506
:100770008F929F92AF92BF92CF92DF92EF92FF92B1
:100780000F931F93CF93DF936C017B018A018091BC
:100790001501882309F458C08091A702882309F421
:1007A00053C08091380280FF05C08091E0008260D4
:1007B0008093E000E801B12C8AEFA82E93E0892E07
:1007C0002AE3922E209711F4BB20B9F10E9449022E
:1007D000811106C0AA94AA20B9F10E940403F2CFA5
:1007E0008C171D0611F00CF08C2F9FB7F894809297
:1007F000E9002091E80025FD02C09FBFE3CF282F2C
:1008000030E0C21BD30BF701815020F0419140939F
:10081000F100FACFE20EF31EBB2021F09092E80027
:10082000B12CEBCF8091E80085FDE7CF9092E800F6
:10083000BB24B394209709F3F3CF5D9884E68093AB
:100840003702101611063CF081E090E0F601938328
:10085000828310E000E0C801DF91CF911F910F91DA
:10086000FF90EF90DF90CF90BF90AF909F908F90D0
:100870000895CF93DF931F92CDB7DEB76983DC0174
:10088000ED91FC910280F381E02D41E050E0BE014A
:100890006F5F7F4F09950F90DF91CF91089583E0AF
:1008A0008093E9008091F200882319F08AE3809315
:1008B000E80008950E94490290E00895CF93DF93E5
:1008C0001F92CDB7DEB7FC018485958597FD08C0E2
:1008D0002FEF3FEF358724870F90DF91CF91089559
:1008E000CE0101960E941F02019719F4898190E0C0
:1008F000F3CF8FEF9FEFF0CF0F931F93CF93DF9343
:100900001F92CDB7DEB78C01FC018485958597FFDA
:100910000BC0CE0101960E941F02019771F48981DC
:1009200090E0F80195878487F801848595850F907C
:10093000DF91CF911F910F9108958FEF9FEFF1CF2E
:10094000FC018485958597FD0BC09FB7F89482E0E4
:100950008093E9008091F2009FBF90E00196089596
:100960009FB7F89482E08093E9008091F2009FBFE6
:1009700090E0089580912F02E0913002F0913102D1
:10098000882339F084919FEB980F9A3120F4805E90
:1009900008958081F8CF803269F42091300230913F
:1009A0003102A9014F5F5F4F5093310240933002F3
:1009B000232B01F708951F93CF93DF930E94BA046E
:1009C000D0E0C0E01AE090ED980F9A30B8F41C9F88
:1009D00090011D9F300D1124E901C80FD11D87FD25
:1009E000DA95E097809130029091310201969093D0
:1009F0003102809330020E94BA04E5CFCE01DF912C
:100A0000CF911F9108953F924F925F926F927F9284
:100A10008F929F92AF92BF92CF92DF92EF92FF920E
:100A20000F931F93CF93DF937B01D42E20912C0241
:100A300021111BC021E020932C0210927200109211
:100A4000C00034E03093C10039E03093C2002093FD
:100A5000C30023E02093BF0028EE2093D100109222
:100A6000BF001092D200579A789410920901CC24BA
:100A7000C39497FF03C09F77AAE0CA2EC8E2CC9E1A
:100A8000C02D1124D0E08C179D0750F021E0EC011F
:100A9000C21206C0C13187E2D80710F0C0E1D7E228
:100AA0004E01B12CA12C4C2C512C712C612C9E018F
:100AB000AFEFB7E00E943D16640D751D861D971DB2
:100AC0009695879577956795A30192010E94F615F3
:100AD00060E072E18AE790E0312C3394621773078B
:100AE0008407950728F09695879577956795F5CFB4
:100AF000A30192010E94C6159E0136952795620FAB
:100B0000731F811D911DA50194010E94F615722E7F
:100B1000022F132F2AE0C21207C0CE0105966AE009
:100B200070E00E94E215EB01C83E83E0D80759F05F
:100B30009701DE010E943D1628EE33E040E050E0D0
:100B40000E9418167901109272008091C100807F76
:100B500083298093C1001093BF007092D1004D2D66
:100B6000403108F04FE080E190E0841B910902C021
:100B7000169507958A95E2F71093BF000093D2006F
:100B8000F0922E02E0922D0289B38FEF89BB84E0B0
:100B900080937200DF91CF911F910F91FF90EF90A2
:100BA000DF90CF90BF90AF909F908F907F906F908D
:100BB0005F904F903F9008952E98269A2D98259AF1
:100BC0002A98229A2998219A80EA8093800081E1CC
:100BD0008093810080E991E0909387008093860064
:100BE000109289001092880010928B0010928A0057
:100BF00008950F931F93CF93DF938C01EB018091A6
:100C00002802811105C081E0809328020E94DC0542
:100C100080E017FF04C011950195110981E00139A9
:100C200091E0190714F000E911E010938B00009394
:100C30008A00882329F12A9A229A80912802811118
:100C400005C081E0809328020E94DC0580E0D7FF88
:100C500004C0D195C195D10981E0C13991E0D9078E
:100C600014F0C0E9D1E0D0938900C09388008823B4
:100C700049F0299A219ADF91CF911F910F91089500
:100C80002A98DACF2998F6CF20910002260F332731
:100C9000331F21323105ECF420916602FC0190E013
:100CA00080E0243069F082E00895A0910002219153
:100CB000AC0140525E4FA40FB52FB11D2C9301968D
:100CC000861798F380910002680F6093000280E01D
:100CD000089581E008951092660281E08093650294
:100CE0001092400261E082E00E946E0261E083E0C7
:100CF0000E946E02E9EBF0E080818E7F808380812C
:100D00008D7F808388E48093B80085E48093BC0065
:100D10000895CF93DF9391E09093DF018823B9F09A
:100D2000C091B800D091BA008091BC008A7B8093BA
:100D3000BC0060E082E00E946E0260E083E00E94FE
:100D40006E020E946B06D093BA00C093B800DF9188
:100D5000CF9108950895E0913E0280913F02E817F7
:100D600030F4F0E0E154FE4F808190E008958FEF81
:100D70009FEF089590913E0280913F022FEF3FEF49
:100D8000981748F4E92FF0E0E154FE4F208130E05D
:100D90009F5F90933E02C9010895CF92DF92EF9238
:100DA000FF920F931F93CF93DF937C01CB018A01B6
:100DB00020916C02222389F0EB016B01C40ED51E39
:100DC000CC15DD0569F06991D701ED91FC91019099
:100DD000F081E02DC7010995F3CF642F0E944406EE
:100DE000C801DF91CF911F910F91FF90EF90DF909D
:100DF000CF900895CF93DF931F92CDB7DEB769836D
:100E000020916C022223F9F020918F02203258F0B9
:100E100021E030E0FC013383228390E080E00F90FA
:100E2000DF91CF91089580916D02E82FF0E0E259B3
:100E3000FD4F998190838F5F80936D0280938F0225
:100E400081E090E0ECCF61E0CE0101960E94440683
:100E5000F7CF289A209A08952898209A08955F92AB
:100E60006F927F928F929F92AF92BF92CF92DF92BA
:100E7000EF92FF920F931F93CF93DF935C01D62FD6
:100E8000C42FF22E132F0E942C078D2F806B0E94EF
:100E9000EE018C2F82958F7080610E94EE018C2F65
:100EA0008F700E94EE010E942907CF2DD12F0C0FC9
:100EB0001D2F111D95E0692EC017D10709F444C0FC
:100EC0007990872D8052990B9C01629EC001639E90
:100ED000900D1124769C40011124F12CE12C9C01F1
:100EE00024553F4F69013FE1371508F5F601EE0D36
:100EF000FF1DE491F0E084E0F595E7958A95E1F730
:100F0000E457FD4F5490852D0E94EE01852D0E94DF
:100F1000EE019FEFE91AF90A25E0E216F10419F74C
:100F200080E00E94EE0180E00E94EE01C5CF87E0E4
:100F3000E0E08715F8F2F401EE0DFF1DE254FF4FDB
:100F4000EA0DFB1DE081D6CFDF91CF911F910F916C
:100F5000FF90EF90DF90CF90BF90AF909F908F90D9
:100F60007F906F905F9008955F926F927F928F92C3
:100F70009F92AF92BF92CF92DF92EF92FF920F9328
:100F80001F93CF93DF935C01D62FC42FF22E132F24
:100F90000E942C078D2F806B0E94EE018C2F829572
:100FA0008F7080610E94EE018C2F8F700E94EE0185
:100FB0000E942907CF2DD12F0C0F1D2F111D85E069
:100FC000682EC017D10709F440C07990872D805250
:100FD000990B9C01629EC001639E900D1124769C2A
:100FE00040011124F12CE12C9C0124553F4F690153
:100FF0003FE13715E8F4F601EE0DFF1DE491EF70C7
:10100000F0E0E457FD4F5490852D0E94EE01852DB0
:101010000E94EE019FEFE91AF90A25E0E216F104B9
:1010200039F780E00E94EE0180E00E94EE01C9CF16
:1010300087E0E0E0871518F3F401EE0DFF1DE254A0
:10104000FF4FEA0DFB1DE081DACFDF91CF911F91B9
:101050000F91FF90EF90DF90CF90BF90AF909F9057
:101060008F907F906F905F9008956F927F928F9294
:101070009F92AF92BF92CF92DF92EF92FF920F9327
:101080001F93CF93DF935C01D62FC42FF22E132F23
:101090000E942C078D2F806B0E94EE018C2F829571
:1010A0008F7080610E94EE018C2F8F700E94EE0184
:1010B0000E942907CF2DD12F0C0F1D2F111D85E068
:1010C000682EC017D107A9F17990872D8052990B0E
:1010D0009C01629EC001639E900D1124769C40018C
:1010E0001124F12CE12C9C0124553F4F69013FE173
:1010F000371588F4F601EE0DFF1D84910E94EE0174
:101100009FEFE91AF90A25E0E216F10481F780E081
:101110000E94EE01D6CF87E0871548F0F701E80D71
:10112000F91DE254FF4FEA0DFB1D8081E7CF80E0FF
:10113000E5CFDF91CF911F910F91FF90EF90DF905E
:10114000CF90BF90AF909F908F907F906F900895B9
:10115000FC01208121FB0EF0559820FB0EF05D98DC
:101160000EF45D9A21FB0EF4559A218121FB0EF0BD
:10117000209820FB0EF028980EF4289A21FB0EF4FC
:10118000209AA9EEB0E01C9284818093F0008381C4
:101190008C9382818093E2000895FC01A2EEB0E07E
:1011A0008C9182831C92A9EEB0E08C9183831C9277
:1011B000A0EFB0E08C9184831C9220E05D992160C7
:1011C00055992260208320E028992160209922608F
:1011D00021835D98559A0895CF92DF92EF92FF9206
:1011E0000F93CF93DF93EC017C0184E0E80EF11CB8
:1011F000C7010E94CD086E0184E1C80ED11C08E031
:10120000960143E162E0CE010E94B407960143E1FA
:1012100063E0CE010E942F076E0189E2C80ED11C47
:10122000960143E165E0CE010E94B407960143E1D7
:1012300066E0CE010E942F07C701DF91CF910F9189
:10124000FF90EF90DF90CF900C94A808EF92FF9260
:101250000F93CF93DF93EC017C0184E0E80EF11C47
:10126000C7010E94CD089E012C5E3F4F05E142E080
:1012700060E0CE010E9435089E01275D3F4F42E0AD
:1012800061E0CE010E9435089E01225C3F4F42E0A2
:1012900062E0CE010E9435089E012D5A3F4F42E088
:1012A00063E0CE010E9435089E0128593F4F42E07D
:1012B00064E0CE010E9435089E0123583F4F42E072
:1012C00065E0CE010E9435089E012E563F4F42E058
:1012D00066E0CE010E9435089E0129553F4F42E04D
:1012E00067E0CE010E943508C701DF91CF910F91D1
:1012F000FF90EF900C94A808EF92FF920F931F932A
:10130000CF93DF938C017C0184E0E80EF11CC701D0
:101310000E94CD080E942C0782E00E94EE01C0E0EE
:101320000E942C078C2F806B0E94EE0180E10E94AE
:10133000EE010E942907D0E080E00E94EE01DF5F0D
:10134000D038D1F7CF5FC83059F7C7010E94A8083D
:10135000F8011286DF91CF911F910F91FF90EF90CE
:101360000895AF92BF92CF92DF92EF92FF920F93C8
:101370001F93CF93DF937C01122F683008F043C096
:10138000423008F040C088E0861B8217D0F122234B
:10139000D1F1C42FCC0FC40FDCE06D9FD02D1124F0
:1013A000DD5E670124E1C20ED11C862F90E025E1AD
:1013B000429F800D911D1124C80ED91E570184E053
:1013C000A80EB11CC5010E94CD0862E06C0F012F70
:1013D00096014D2FC7010E94B40763E06C0F960180
:1013E0004D2FC7010E942F07C501DF91CF911F919B
:1013F0000F91FF90EF90DF90CF90BF90AF900C9443
:10140000A808182FC6CFDF91CF911F910F91FF90A1
:10141000EF90DF90CF90BF90AF900895BF92CF92A2
:10142000DF92EF92FF920F931F93CF93DF93EC0124
:10143000162FB42E022F653198F527E0241780F17E
:1014400085E1861B801750F1002351F1CE014496AF
:10145000E12EF12C25E1B29EE00CF11C1124E80EE6
:10146000F91E6E0184E0C80ED11CC6010E94CD0891
:10147000412F440F410F440F4E5F97016B2DCE015A
:101480000E943508C601DF91CF911F910F91FF9007
:10149000EF90DF90CF90BF900C94A808082FD6CF84
:1014A000DF91CF911F910F91FF90EF90DF90CF9040
:1014B000BF900895089590E080E00895FB010190A9
:1014C0000020E9F73197AF01461B570BDC01ED9186
:1014D000FC910280F381E02D099485ED8093BC009E
:1014E0008091680290916902A0916A02B0916B02AA
:1014F0000796A11DB11D23E0B695A79597958795F1
:101500002A95D1F72091BC0024FD03C010926602F9
:101510000895409168025091690260916A02709149
:101520006B02452B462B472B69F30097A105B105AC
:1015300041F02AE22A95F1F700C00197A109B1090B
:10154000E1CF809167020C9489060F931F93CF938C
:10155000DF93FC01218521112EC0EC015B98539A89
:101560005A98529AF5E3FA95F1F700005A9A529A6E
:1015700085E38A95F1F70000CE010E947C098E0177
:101580000C5F1F4FC8010E94CD080E942C0781EA02
:101590000E94EE0188EC0E94EE0181E80E94EE01BB
:1015A0008FEF0E94EE018FEA0E94EE01C8010E94B7
:1015B000A80881E08987DF91CF911F910F9108954D
:1015C00048EA50E060E270E088E193E00E94601633
:1015D0001092C0031092C10380910F03811126C0A5
:1015E00084E093E00E94A50A80910E03882321F0F5
:1015F00084E093E00E947C09209112033091130350
:10160000C901959587958C5F9C4FE0911003F091EF
:10161000110320FF08C0DC012D913C91E20FF31F64
:101620000190F081E02D099510920F030895FF922B
:101630000F931F93CF93DF93EC01162F042FF22EFD
:101640000E94A50A8A85882319F0CE010E947C0990
:101650002A893B89C901959587958C0F9D1FE8893B
:10166000F98920FF08C0DC012D913C91E20FF31FA6
:101670000190F081E02D2F2D402F612FDF91CF9130
:101680001F910F91FF900994CF93DF93DC01A35436
:10169000BF4F2C91283008F5EC01C454DF4FE8818E
:1016A000E531D8F4AC0175E1279F400D511D11249F
:1016B000E40FF52FF11D648BFC012385211105C07A
:1016C00021E04C9168810E94170B88818F5F88838D
:1016D00081E090E0DF91CF91089590E080E0FACF33
:1016E000BF92CF92DF92EF92FF920F931F93CF930F
:1016F000DF938C01EA016C012DEBC20ED11CF601C7
:1017000030813830D8F57C01FCEBEF0EF11CF7018D
:101710008081853198F525E1281B90E02417150676
:1017200020F4C5E1D0E0C81BD90BF5E13F9F800D47
:10173000911D1124AE0198012C5E3F4F820F931F23
:101740000E945716BC2EF8018385811108C02C2FEA
:10175000F6014081F7016081C8010E94170BF70173
:1017600080818B0D8083CE01DF91CF911F910F91EE
:10177000FF90EF90DF90CF90BF900895D0E0C0E051
:10178000F2CF1F920F920FB60F9211242F933F9317
:101790008F939F93AF93BF93809192029091930206
:1017A000A0919402B09195023091910223E0230F11
:1017B0002D3758F50196A11DB11D209391028093FC
:1017C000920290939302A0939402B0939502809119
:1017D000960290919702A0919802B0919902019679
:1017E000A11DB11D8093960290939702A093980239
:1017F000B0939902BF91AF919F918F913F912F919B
:101800000F900FBE0F901F90189526E8230F029699
:10181000A11DB11DD2CF1F920F920FB60F921124AE
:101820002F933F934F935F936F937F938F939F93E8
:10183000AF93BF93EF93FF93E0911E01F0911F01CF
:101840000995FF91EF91BF91AF919F918F917F91FA
:101850006F915F914F913F912F910F900FBE0F901D
:101860001F9018951F920F920FB60F9211242F936D
:101870003F934F935F936F937F938F939F93AF9318
:10188000BF93EF93FF93E0911C01F0911D01099527
:10189000FF91EF91BF91AF919F918F917F916F9148
:1018A0005F914F913F912F910F900FBE0F901F901E
:1018B00018951F920F920FB60F9211242F933F93FA
:1018C0004F935F936F937F938F939F93AF93BF9348
:1018D000EF93FF93E0911A01F0911B010995FF919D
:1018E000EF91BF91AF919F918F917F916F915F9198
:1018F0004F913F912F910F900FBE0F901F90189511
:101900001F920F920FB60F9211242F933F934F9374
:101910005F936F937F938F939F93AF93BF93EF9357
:10192000FF93E0911801F09119010995FF91EF9152
:10193000BF91AF919F918F917F916F915F914F91E7
:101940003F912F910F900FBE0F901F9018951F92EF
:101950000F920FB60F9211242F933F934F935F93E3
:101960006F937F938F939F93AF93BF93EF93FF9367
:10197000E0911601F09117010995FF91EF91BF9148
:10198000AF919F918F917F916F915F914F913F9117
:101990002F910F900FBE0F901F9018951F920F92CE
:1019A0000FB60F9211248F939F938091E100909135
:1019B000E100937F9093E10083FF0FC01092E90054
:1019C00091E09093EB001092EC0092E39093ED0085
:1019D0001092A70298E09093F00082FF22C093E05B
:1019E0009093E9009091F200992319F09AE3909373
:1019F000E80090913702992341F09091370291507D
:101A000090933702911101C05D9A9091A60299239B
:101A100041F09091A60291509093A602911101C0BD
:101A2000289A84FF18C08091E2008E7E81608093A6
:101A3000E2008091E1008F7E8093E1008091380286
:101A40008E7E8061809338029F918F910F900FBEA0
:101A50000F901F90189580FFF7CF8091E2008E7E47
:101A600080618093E2008091E1008E7E8093E100AE
:101A7000809138028E7E8160E5CF1F920F920FB663
:101A80000F921124CF92DF92EF92FF920F931F9348
:101A90002F933F934F935F936F937F938F939F9376
:101AA000AF93BF93EF93FF93CF93DF93CDB7DEB7A1
:101AB0006C97DEBFCDBF1092E9008091E80083FFF4
:101AC00025C068E0CE0145960E94AB0382EF80936B
:101AD000E8008D8987FF39C09091E80090FFFCCF26
:101AE000982F907609F034C19E894F89588D2F899F
:101AF000F88C911131C0803861F580913902809362
:101B0000F1001092F1008EEF8093E8006C960FB612
:101B1000F894DEBF0FBECDBFDF91CF91FF91EF9163
:101B2000BF91AF919F918F917F916F915F914F91F5
:101B30003F912F911F910F91FF90EF90DF90CF90E9
:101B40000F900FBE0F901F9018959EEF9093E80096
:101B5000C7CF1092F100D5CF913059F48111D3CF76
:101B60004130510581F6809139028D7F8093390291
:101B7000CACF933049F48111C6CF4130510519F6CF
:101B8000809139028260F2CF953041F48091E80073
:101B900080FFFCCF20682093E300B5CF963009F09A
:101BA000A9C00B8D1C8D22E01092E9001092350225
:101BB00010923402F2122EC01092330210923202AE
:101BC0000E947A031F8299E09983FA8291E09E83B2
:101BD00090EA98879AEF99872091340230913502E4
:101BE000275F3F4F3C832B838D831092E900109237
:101BF000350210923402109333020093320249E00E
:101C000050E0BE016F5F7F4F80E00E9454030E944E
:101C10007A0379CF10933302009332020E945A0262
:101C2000DC0112960D911C910115110509F451C1A9
:101C3000D801ED91FC910480F581E02DBE016B5E31
:101C40007F4FC8010995009709F03EC1F801008552
:101C50001185EACFF3E0FF120EC08F89882309F4C3
:101C600040C0823061F440E862E187E093E00E9486
:101C7000D012811148CF81E28093EB0047CF8130B1
:101C800029F440E862E184EF92E0F1CF833099F7E4
:101C90000E945A02DC011296ED90FC908E010F5FBB
:101CA0001F4F6801E114F10479F0D701ED91FC9127
:101CB0000680F781E02DB801C7010995080F111DB5
:101CC000F701E084F184EECFD8011C92F601019077
:101CD0000020E9F73197BF016C197D0940E0C6018A
:101CE000C6CF6EED72E0FB01449150E080E80E94A7
:101CF000540309CF973009F4BECF983021F481E026
:101D00008093F10000CF993009F0FDCE837009F087
:101D1000B2CFEBE3F1E081E031E096E321912223C1
:101D200071F08093E9003093EB00DF0111972C9163
:101D30002093EC009093ED008F5F873079F78EE76A
:101D40008093EA001092EA008F898093A702DBCE8D
:101D50008B8D9C8D1092E900109235021092340206
:101D60009093330280933202898D811192C08E89C3
:101D70009D89913A49F4813209F07DCF47E050E0E6
:101D80006EE071E080E0B3CF913209F074CF83321E
:101D900069F48F89988DB0E0A0E080930A01909358
:101DA0000B01A0930C01B0930D01ADCE803269F40C
:101DB0008091E80082FFFCCF67E08EE091E00E9416
:101DC000AB038BEF8093E8009ECE823209F09BCE6E
:101DD0008F8980931501EEEFFFE7859194918B3FFA
:101DE0009C4D51F1E0E0F8E080910E0190910F01DF
:101DF000A0911001B0911101803B9440A105B10563
:101E0000F1F48091150180FD1AC0EE3F8AE0F807D9
:101E100089F587E797E791838083809160008093BD
:101E2000360288E19BE00FB6F894A8958093600095
:101E30000FBE9093600067CEEEEFFAE0D5CF8081C1
:101E400091818737974709F05ECEA8958091600011
:101E50008861809360008091360280936000EE3F3D
:101E60002AE0F20789F08091FE0A9091FF0A91839F
:101E7000808349CE808191818737980751F2909372
:101E8000FF0A8093FE0AC5CF1092FF0A1092FE0A45
:101E90003ACE0E945A02DC0112960D911C91011556
:101EA000110509F4E8CED801ED91FC910190F08183
:101EB000E02DBE016B5E7F4FC8010995811123CED5
:101EC000F80100851185EBCF181619060CF41BCE0E
:101ED000D2CEF1E0FF12BECE62EE72E004CF1F92CE
:101EE0000F920FB60F9211244F925F926F927F92D2
:101EF0008F929F92AF92BF92CF92DF92EF92FF921A
:101F00000F931F932F933F934F935F936F937F9301
:101F10008F939F93AF93BF93CF93DF93EF93FF93F1
:101F2000C0912D02D0912E02CE01019790932E02E6
:101F300080932D022097A1F51092720078948091E1
:101F4000C100807F84608093C10083E08093BF00E4
:101F500088EE8093D1001092BF001092D20081E0F1
:101F6000809309018091300290913102892BC1F058
:101F700080912B02811114C07090080180912A0277
:101F8000882379F180912902882359F160912902EF
:101F900070E040E088EE93E00E9403051092290271
:101FA000FF91EF91DF91CF91BF91AF919F918F9171
:101FB0007F916F915F914F913F912F911F910F9161
:101FC000FF90EF90DF90CF90BF90AF909F908F9059
:101FD0007F906F905F904F900F900FBE0F901F906B
:101FE00018955524539470ECA72E7DE5B72EEAE0A2
:101FF0004E2EF4E06F2EA0EDCA2EA7E0DA2EB4E04C
:10200000EB2EF12C04EF11E08FE0882E912C0E9432
:10201000BA0420913002309131022F5F3F4F30934C
:10202000310220933002853609F473C00CF047C0AA
:10203000813609F4B4C024F58C3309F468C08E33BA
:1020400009F463C0813209F043C060920801D09264
:102050000501C0920401F0920701E092060110937D
:1020600003010093020190920101809200011092FD
:102070002A02709008018091020190910301C7CF5C
:10208000833609F48FC010E00BE0843614F010E0C2
:1020900002E04CE0749E000D11240E94BA04982FB7
:1020A000977F933209F080C0809130029091310285
:1020B000019690933102809330020F5FEECF8D3600
:1020C00009F445C054F4873651F134F18C3651F19E
:1020D000109231021092300263CF823709F44CC063
:1020E00044F48F36A9F70E94DB04782E8093080110
:1020F0008ECF843709F443C0863751F70E94DB0442
:10210000909301018093000182CF739480CF7A94E1
:102110007ECF10E004E0BDCF10E005E0BACF10E0C4
:1021200007E0B7CF0E94DB0490930701809306017C
:102130008091040190910501609106017091070161
:102140000E94E215709303016093020160CF0E9428
:10215000BA048C3661F410922A0280913002909178
:1021600031020196909331028093300250CF509209
:102170002A0210922902F1CF11E000E08ACF0E94DA
:10218000DB04BC01C5010E94E215469EC001479ECA
:10219000900D11249093050180930401C9CF10E0A4
:1021A00009E077CF10E0E9CF8D3269F480913002F9
:1021B0009091310201969093310280933002015048
:1021C0000E94BA04F1CFE0900201F0900301815324
:1021D000883058F4E0900401F09005010E94DB047F
:1021E000BC01C7010E94E2157B016701D694C79428
:1021F0000E94BA048E3261F48091300290913102D3
:1022000001969093310280933002EC0CFD1CEECFCE
:1022100080912A02882349F0C7019695879580937B
:10222000290280912902E81AF108C0900001D0909B
:102230000101111104C00F3F11F0C11007C040E0AF
:10224000B70188EE93E00E940305AACE013128F081
:1022500010EF100F103608F01FE5812F6CE00E9480
:10226000D615582F44EF450390011124210F311D3D
:102270002C30310538F4220F331FF901EE5DFE4F8B
:10228000C081D1818730C1F0082E02C0CC0FDD1F84
:102290000A94E2F7823040F0CE0105966AE070E0E1
:1022A0000E94E215CB0102C0CE0190584C2D403166
:1022B00008F04FE0B701C7CFCE0126E0880F991F85
:1022C0002A95E1F7029665E070E0EACF1F920F923F
:1022D0000FB60F9211242F933F934F936F937F93D9
:1022E0008F939F938CB1282F30E0359527953595A6
:1022F0002795422F417083B190E064E095958795D2
:102300006A95E1F782278170209127029091260239
:10231000609124027091250228279427291B330BF2
:10232000260F371F30932502209324022091260286
:1023300090912702281729F0941719F091E09093B3
:10234000230280932602409327029F918F917F91D1
:102350006F914F913F912F910F900FBE0F901F9053
:1023600018951F920F920FB60F9211242F933F933F
:102370004F935F936F937F938F939F93AF93BF938D
:10238000EF93FF938091B900887F803609F44AC0AB
:10239000F0F5883209F4A7C018F5803109F49BC024
:1023A000B8F4882309F4F9C0883009F494C0FF9187
:1023B000EF91BF91AF919F918F917F916F915F91BD
:1023C0004F913F912F910F900FBE0F901F90189536
:1023D000883109F488C0803251F78093640214C0B8
:1023E000803409F49DC040F48033B9F38833F9F6A2
:1023F0008093640285ECB0C0803509F485C08835CF
:1024000009F496C0883499F60E946D0AD0CF8839B5
:1024100009F48CC038F5883729F050F4883611F06B
:10242000803729F683E0809366021092220257C01B
:10243000883809F47BC0803919F0803809F0B7CFAB
:1024400080912202803208F071C0E091220281E086
:102450008E0F809322028091BB00F0E0EE5FFD4F73
:1024600080833DC0803B39F0E0F4803A09F479C0C4
:10247000883A09F09CCF84E08093660210920102B2
:1024800010920002E0913C02F0913D02099580918A
:10249000000281110FC081E0809300021092E001E0
:1024A00009C0803C09F4A6CF883C09F4A3CF883B3F
:1024B00009F07DCFE091010281E08E0F809301024F
:1024C000F0E0E052FE4F80818093BB0090910102CA
:1024D0008091000229C0809141028093BB0085EC6D
:1024E0008093BC0064CF9091630280916202981740
:1024F00058F5E091630281E08E0F80936302F0E073
:10250000EE5BFD4F8081E9CFE091630281E08E0FA9
:10251000809363028091BB00F0E0EE5BFD4F80830F
:1025200090916302809162029817C8F285E8D8CF33
:10253000E091630281E08E0F809363028091BB0083
:10254000F0E0EE5BFD4F80838091650281115CCFEE
:1025500081E08093400284EA8093BC00109266027E
:1025600026CF85EC8093BC001092660280912202F7
:10257000803230F4E0912202F0E0EE5FFD4F1082F5
:102580006091220270E0E0913A02F0913B0282E019
:1025900092E00995109222020ACF1092640234CF81
:1025A000EF92FF920F931F93CF93DF93F82E192F83
:1025B000E62E042F81E0860F880F0E94260383E019
:1025C0000E942603CF2DD12FEC0EFD2EF11CCE152F
:1025D000DF05B9F007FF13C0FE0184910E942603B6
:1025E000182F80E00E942603812321968111EFCFCE
:1025F000DF91CF911F910F91FF90EF900895888107
:10260000EDCF81E0F5CFCF93DF93E8EAF2E01382DC
:10261000128288EE93E0A0E0B0E084839583A683E5
:10262000B78325E431E0318320832FEF3FEF3587F7
:102630002487E8EFF2E01382128284839583A683D5
:10264000B78387E591E091838083C4E0D3E01B8268
:102650001A8248EA50E060E270E088E193E00E946C
:1026600060161092EB031092EA038CEE98E09D87BF
:102670008C871F861E8681EB99E0998B888B1B8A3D
:102680001A8A81E08A8789E691E099838883DF91BD
:10269000CF910895CF93DF9300D01F92CDB7DEB7CF
:1026A000789484B5826084BD84B5816084BD85B52D
:1026B000826085BD85B5816085BD80916E00816039
:1026C00080936E00109281008091810082608093DF
:1026D00081008091810081608093810080918000E1
:1026E000816080938000809191008260809391004E
:1026F0008091910081608093910080919000816031
:10270000809390008091C10084608093C10080918B
:10271000C10082608093C1008091C100816080937C
:10272000C1008091C30081608093C3008091C0008C
:1027300082608093C0008091C20081608093C2005B
:1027400080917A00846080937A0080917A00826020
:1027500080937A0080917A00816080937A008091E2
:102760007A00806880937A001092A7021092390252
:10277000109238028091D70081608093D70080EA60
:102780008093D80089B5806189BD89B5826089BD93
:1027900009B400FEFDCF0E9404038091D8008F7C15
:1027A00080618093D8008091E000807F8093E0007A
:1027B0008091E1008E7E8093E1008DE08093E200C5
:1027C000559A209A8FEF9FEF9093B5028093B402B1
:1027D00061E771E088EA92E00E945E0A63E871E0D6
:1027E00088EA92E00E945E0A10923E0210923F0236
:1027F0000E946B0683E293E090933D0280933C023B
:1028000084E293E090933B0280933A028CE38093BE
:10281000BA0011E010936C028BE680938E02109246
:102820006D0210928F0284E093E00E94A50A10923C
:10283000EB031092EA0386E299E0909311038093F0
:10284000100310921303109212038EE09AE09093FB
:10285000150380931403109217031092160310931C
:102860000E030E94E00A50E0E52E50E0F52E6CE2E7
:10287000C62EDD24D39478ECA72EB12CE0E98E2E61
:10288000992493940FEF90913F0280913E02981704
:1028900009F495C088EF92E00E94BA06782E682F5E
:1028A00088EA92E00E94390463E871E088EA92E0E5
:1028B0000E945E0AEFE9E70DE73108F07BC00E2EBB
:1028C000000CFF0BEA59FB4E0C943716B214DA14C5
:1028D000DA14BB14CE144314DA147D14DA14DA14A7
:1028E000DA148C14DA149714DA14DA14C414DA141F
:1028F000AA14DA14DA14DA14A21490922101809244
:102900002001109390020E94E00A66E871E084E0E2
:1029100093E00E945E0AB7CFB0922101A0922001FD
:10292000109390020E94E00A67E971E0F0CFD09224
:102930002101C0922001109390020E94E00A66EAF1
:1029400071E0E5CF8091200190912101BC010E94AE
:10295000F90599CF80912001909121019195819560
:102960009109F4CF8091200190912101BC019195B2
:1029700081959109ECCF80912001909121016627EA
:102980007727681B790BE3CF6091200170912101BB
:10299000CB0177FD019695958795D9CF8091200140
:1029A00090912101BC0197FF02C06F5F7F4F759529
:1029B0006795CDCF70E060E090E080E0C8CF809177
:1029C0009002882309F4B3C08091200190912101E5
:1029D000330F220B322F29839A838B8343E050E0FD
:1029E000BE016F5F7F4F88EF92E00E94CD0620907E
:1029F0008F0280E2821508F492C030908E020E940D
:102A0000DF022B013C0180916602811163C082E0EC
:102A10008093660210936502009364021092630231
:102A200020926202AEE6B2E0E2E4F2E080E0281238
:102A300085C01092410280914102330C382A3092B5
:102A4000410280914002813009F07CC01092400226
:102A50000E94DF022B013C01809141028093BB0068
:102A60008091680290916902A0916A02B0916B0214
:102A7000892B8A2B8B2B99F00E94DF022091680210
:102A80003091690240916A0250916B026419750994
:102A9000860997092617370748075907E0F18091FB
:102AA000BC0083FDD9CF85EC8093BC000E94DF027F
:102AB0002B013C0180916602823009F445C080916F
:102AC00064028F3F61F180916402803241F1809114
:102AD000640225C08091680290916902A0916A0207
:102AE000B0916B02892B8A2B8B2B09F48CCF0E941F
:102AF000DF02209168023091690240916A02509190
:102B00006B02641975098609970926173707480764
:102B1000590708F078CF809167020E9489061092C9
:102B20006D0210928F0210926C0210929002E114CA
:102B3000F10409F4A8CE0E940000A4CE9D919193C7
:102B40008F5F75CF85EEB0CF80916802909169025A
:102B5000A0916A02B0916B02892B8A2B8B2B09F40E
:102B6000A9CF0E94DF022091680230916902409152
:102B70006A0250916B026419750986099709261734
:102B800037074807590708F095CFC5CFDB018F936A
:102B90009F930E944C16BF91AF91A29F800D911DF3
:102BA000A39F900DB29F900D11240895991B79E079
:102BB00004C0991F961708F0961B881F7A95C9F7CD
:102BC00080950895AA1BBB1B51E107C0AA1FBB1F1C
:102BD000A617B70710F0A61BB70B881F991F5A95A9
:102BE000A9F780959095BC01CD010895A1E21A2E18
:102BF000AA1BBB1BFD010DC0AA1FBB1FEE1FFF1FA1
:102C0000A217B307E407F50720F0A21BB30BE40BF0
:102C1000F50B661F771F881F991F1A9469F7609537
:102C20007095809590959B01AC01BD01CF010895F1
:102C3000052E97FB1EF400940E942F1657FD07D017
:102C40000E94F61507FC03D04EF40C942F165095F5
:102C50004095309521953F4F4F4F5F4F0895909588
:102C60008095709561957F4F8F4F9F4F0895EE0F20
:102C7000FF1F0590F491E02D0994A29FB001B39F2E
:102C8000C001A39F700D811D1124911DB29F700D75
:102C9000811D1124911D08950E943D16A59F900D40
:102CA000B49F900DA49F800D911D11240895FB01E8
:102CB000DC0102C001900D9241505040D8F70895B8
:102CC000DC0101C06D9341505040E0F70895F89445
:022CD000FFCF34
:102CD2000F00F401D00704000401FFFFFFFF00E131
:102CE200000000000000250325032503250325031A
:102CF2002C019C01B501CF01EA010702260247021D
:102D020069028E02B502DE020A0300C18081000060
:102D120000000000003904B8035A044F04A0045E06
:102D2200047C0400000000FA06CD065B0AAA061C19
:102D320003BA06AB0600000000440B700B5B0A5A94
:102D42000A536574757020696E697469617465648B
:102D52002E2E000D0A0053706F72744D6F64652041
:102D620063686F73656E0045636F4D6F64652063C2
:102D7200686F73656E00526567756C6172206D6F66
:0A2D820064652063686F73656E00DE
:00000001FF
